:100000000C94A8010C94C5010C94C5010C941A1B06
:100010000C94C5010C94C5010C94C5010C94C50148
:100020000C94C5010C94C5010C941F200C94F32072
:100030000C9468180C94C5010C94C5010C94C5016E
:100040000C94C5010C94C5010C94C5010C94C50118
:100050000C94C5010C94E0180C94C5010C94C501D6
:100060000C94C5010C94C5010C94C5010C94C501F8
:100070000C94C5010C94C5010C94C5010C94C501E8
:100080000C94C5010C94C5010C94C5010C94C501D8
:100090000C94C5010C94C5010C94C5010C94C501C8
:1000A0000C94C5010C94C5010C94C50129001E00D7
:1000B0001F002000210022002B0014001A0008005D
:1000C00015001700E00004001600070009000A00F0
:1000D000E1001D001B000600190005000000E20001
:1000E000E30021522C002F003500270026002500B8
:1000F000240023002D00130012000C0018001C0027
:10010000340033000F000E000D000B00E500380036
:1001100037003600100011000000E7002A002252CC
:100120002800300001000100010001000100010071
:100130003A003B003C003D003E003F0035001E02FF
:100140001F02200221022202010001000100010021
:100150000100010000000100010001000100010098
:100160000100010001000100010001004500440000
:1001700043004200410040003502270226022502CA
:1001800024022302310230022F022E022D0200002F
:1001900000000100010023520100010001000100E4
:1001A000010001000100010035001E001F002000B9
:1001B000210022003A003B003C003D003E003F0091
:1001C000400041004200430044004500000001009F
:1001D00001002352010001000100010001000100A3
:1001E0000100010001002700260025002400230053
:1001F00000004F005200510050000000310030005C
:100200002F002E002D002E02000001000100010031
:1002100001000100000000000000000000000000DC
:1002200000000000000000000000000000000000CE
:1002300000000000000000000000000000000000BE
:1002400000000000000001000100010001000000AA
:10025000000000000000000000000000000000009E
:10026000000000000000000000000000000000008E
:10027000000000000000000000000000000000007E
:1002800000000100010001000100000000AE00AF0D
:1002900000DA0281FFD9F1DB20A4A62EAF00A0C0B6
:1002A000D30000A1C8D30000AED580A81F408D1494
:1002B00020000E034C0069006C0079003500380006
:1002C000000010036C0069006C00690075006D008F
:1002D000730000000403090409022200010100A0C8
:1002E000FA090400000103010100092111010001C4
:1002F00022440007058103080001120100020000EA
:100300000008D8042DEB00010102000105010906D7
:10031000A101050719E029E71500250195087501D8
:1003200081029501750881010507190029FF150053
:1003300026FF009506750881000508190129051595
:10034000002501950575019102950175039101C084
:1003500011241FBECFEFDAE0DEBFCDBF11E0A0E079
:10036000B1E0ECE4F7E402C005900D92A634B107C9
:10037000D9F724E0A6E4B1E001C01D92AD36B20782
:10038000E1F70E942F130C9465230C940000843035
:10039000B8F46A30A8F4463098F450E096E0699FCB
:1003A000400D511D1124FA019CE3899FE00DF11DC0
:1003B0001124EE0FFF1FE455FF4F8591949108958E
:1003C00081E090E008950E94C701089581E00895BA
:1003D0000E94E60108950E94E601089581E00895D3
:1003E0000E94E60108950E94E60108950E94F3012B
:1003F0000895089508950E94F901089508950895B3
:10040000A6E0B0E0E6E0F2E00C94D52249835A83FE
:100410009E8330914D0189819A8131111AC03E81AC
:10042000332399F0222389F00E946607182F682F42
:1004300089819A810E94420769817A81812F0E9475
:10044000380E2696E3E00C94F1220E945407182FF0
:10045000F3CF0E94660769817A81F1CFFC01262FD4
:100460004081518162817381848195810E94000263
:100470000895CF93DF93EC0161E00E942E02BE014C
:100480000E94E801882359F061E0CE010E942E020B
:10049000BE010E94EB018170DF91CF91089580E051
:1004A000FACF0F931F93CF93DF93EC0160E00E948C
:1004B0002E028C01BE010E94FA01BE01C8010E94F9
:1004C000FB01DF91CF911F910F91089521E030E062
:1004D000A90102C0440F551F8A95E2F7CA010E9484
:1004E00064060895CF93C82F81E090E00C2E02C0DF
:1004F000880F991F0A94E2F70E94A20B8C2F0E948A
:100500006602CF91089581E008950E9483020895C4
:100510000E9483020895CF93C82F0E9417068C2F44
:100520000E9485028C2F0E9488022FEF84E39CE0BA
:10053000215080409040E1F700C00000CF91089525
:1005400081E00E948B020E940419089580E00E94BD
:100550008B020E94151908950F931F93CF93DF9379
:100560008C0161E00E942E02EC01B8010E94F001B2
:10057000811106C080E0DF91CF911F910F91089506
:10058000B801CE010E94F6018823A1F3B801CE0183
:100590000E94E916882371F3B801CE010E94A915C3
:1005A000882341F3B801CE010E947F15882311F3FF
:1005B000B801CE010E947C0F8823E1F2F801858109
:1005C000882361F0C330FCE7DF07E9F058F4C11578
:1005D000ECE7DE07A9F0C130DC47B9F0C8010E94A2
:1005E000EE01C9CFCB358CE7D807A9F0CC35ECE7C5
:1005F000DE0771F0CA35DC4789F70E947D0BEECF2C
:100600000E94A002B7CF0E94850B0E94A602B2CF23
:100610000E94730BE3CF0E94810BE0CF0E94FE018A
:100620000E942A180E9434030E940E1508950E9409
:1006300038030E94FF010E942F18089581E0089559
:100640000895CF93DF93D82F0E941E03C82F8823CD
:1006500019F08D2F0E9420038C2FDF91CF910895E8
:1006600008950E942103089580E00E9431030895B7
:100670000E9432170E9431030895CF930E943217CF
:10068000C82F809148018C1779F0C09348010E94CF
:10069000D4186093490170934A0180934B01909361
:1006A0004C018C2F0E943103CF910895ADE0B0E052
:1006B000ECE5F3E00C94D622488759876A877B875C
:1006C0008C879D8791110E94B30A1F8286E0FE01EC
:1006D0003896DE01119601900D928A95E1F78D8191
:1006E00081110DC029813A814B815C816D817E81B0
:1006F0008F810E94FD092D96E2E00C94F222CE013A
:1007000001960E9439028111EDCFF5CFFC012481C1
:10071000213021F4808191810E9498070895CF9320
:10072000C82F882399F08CEF8C0F813A88F48C2F96
:100730000E946617882329F08C2F0E94A9170E9417
:10074000220B8C2F0E94A1170E94220BCF9108959B
:1007500080E28C0F8830D0F7C77081E001C0880F2D
:10076000CA95EAF70E94960AEFCF882341F09CEFE2
:10077000980F913A28F40E94A9170E94220B08951D
:1007800090E2980F9830D8F7877091E001C0990FE8
:100790008A95EAF7892F0E949C0AEFCF1F93CF9387
:1007A000DF93182FEB010E948F03209739F4812FDC
:1007B0000E94B503DF91CF911F9108958FE99FE0CB
:1007C0000197F1F700C000002197EFCF70E060E0E3
:1007D000893311F460E570E00E94CE030895882308
:1007E00021F00E94960A0E94220B0895882321F08E
:1007F0000E949C0A0E94220B0895B0E0A0E0E3E072
:10080000F4E00C94CF226C01D62FC72FFC01158188
:10081000068102950F700E948C0AE82E8823F9F059
:10082000E12E1123E1F08C2F807F803461F080E293
:100830008D0F883008F18C2F807E803221F4D230E9
:10084000D8F00023C9F08091390282FF15C082E000
:100850000E94470B0E948C0A91E0E82EE926BC2EEC
:10086000B2949FE0B922FBE0FB15B8F1EB2DF0E06C
:10087000E959FC4D0C94C022E12CF1CF0C2F0F70E4
:10088000C07F11F00295007F112399F0002359F0E9
:1008900080E28D0F883010F0D11107C0802F0E94A8
:1008A000960A0E94220B8D2F48C0802F0E94A60A14
:1008B000F8CF8D2F0E94B503002379F080E28D0FD1
:1008C000883010F0D11104C0802F0E949C0A03C010
:1008D000802F0E94AC0A0E94220BEB2DE850FF0BE8
:1008E000349708F04AC10E9432170E943103CDB7F5
:1008F000DEB7E9E00C94EB222C2F2F70F22EC07F94
:10090000C03219F0F29480EFF822DD2341F0D130AB
:10091000C9F1112309F443C00023E9F0C4CF809149
:10092000390282FD14C0112359F0FF2029F08F2DC8
:100930000E94960A0E94220B80E00E948F03CDCF76
:1009400080E00E94B503FF2041F28F2DBECF11231E
:1009500069F0011104C08F2D0E94EF03BECF01305A
:1009600009F0BBCF8F2D0E94CA0AB7CF0111B5CFB6
:100970008F2D0E94F6038F2D0E94D60A8F2D0E9484
:10098000BA0AABCF112321F0063008F0A6CFE3CF8F
:10099000053008F0A2CF8F2D0E94F6039ECF0023D2
:1009A000D1F3D93349F43FEF87EE93E031508040E3
:1009B0009040E1F700C000008D2F0E94B5038DCF5D
:1009C0008C2F8370A1F5111188CF4D2F429546953C
:1009D0004770440F440F2D2F2F7030E0042E02C0BB
:1009E000220F331F0A94E2F790E080E0D4FF09C0A1
:1009F0008FE090E002C0880F991F4A95E2F780953A
:100A00009095C695C695C370822B932BC23049F042
:100A100058F4C13019F00E9470065FCF0E9467063B
:100A20005CCF0E94790659CF0E94640656CF869506
:100A3000112311F08C2F8170882309F44ECF4D2F94
:100A4000429546954770440F440F2D2F2F7030E08C
:100A5000042E02C0220F331F0A94E2F790E080E0D8
:100A6000D4FF09C08FE090E002C0880F991F4A951B
:100A7000E2F780959095C695C695C370822B932B0F
:100A8000C23049F058F4C13019F00E94DB0625CF7E
:100A90000E94D20622CF0E94E4061FCF0E94880641
:100AA0001CCFCF70112329F08C2F0E94A0068D2F10
:100AB00053CF8D2F0E94F6038C2F0E94B0060DCFCE
:100AC000D23F41F160F4D03FB9F0D13F81F0112322
:100AD00009F443C00111E7CE8C2F8F711FC0D33FA3
:100AE00001F1D43FA1F78091390282FD24C08C2FFF
:100AF0008F71112311F312C0112341F0053008F05A
:100B0000ECCE8C2F8F710E94C206E7CE063008F023
:100B1000E4CEF7CF8C2F8F711111CFCF0E94A0069A
:100B2000DCCE112329F08C2F8F710E949406D5CE34
:100B30000E948F06D2CE112331F063E08C2F8F718B
:100B40000E94290BCACE81E00E94470B023008F4B4
:100B5000C4CE82E00E94470BC0CE002359F0D933A7
:100B600009F02ACFEFEFF7EE23E0E150F04020400C
:100B7000E1F720CF8C2F8F71A0CFEE2009F4B7CEF4
:100B80000E94880A80FDB3CEF60115820E94820A77
:100B90000E94A006C6010E94EA050E94820A0E94E5
:100BA000B006A5CE0F931F93CF93DF93EC0168811E
:100BB00079818D810E94A3078C010E94ED060E941D
:100BC0006306B801CE010E94FD03DF91CF911F9112
:100BD0000F910895CF93DF93EC018C81882399F0D6
:100BE000CE010E94AC02811111C00E948C0A8823A0
:100BF00051F08D81882339F08091390282FF03C042
:100C000082E00E94470BDF91CF910895CE010E94B0
:100C1000D205CE010E945102F6CF0E94B30A0E9473
:100C2000220B08950E94B1170E940D0608950E949C
:100C3000A30A0E941206089592959F70963091F033
:100C400058F4925F9F70923058F4803F19F030F45E
:100C5000883E30F481E008959A5FF4CF843FD1F369
:100C600080E00895883EB0F3813FD1F7F3CFFC01D7
:100C70002481222339F0808191810E9498070E946B
:100C80001C06089580E00895A6E0B0E0EAE4F6E0EE
:100C90000C94D6222696E2E00C94F222A7E0B0E073
:100CA000E4E5F6E00C94D6222796E2E00C94F222DA
:100CB00008950E94580608950E9459069093710164
:100CC00080937001089508950E945C060895209114
:100CD000700130917101822B932B0E945C06089564
:100CE0002091700130917101822393230E945C0650
:100CF00008952091700130917101822793270E94FD
:100D00005C0608950E94580608950E948206089580
:100D10000E94850690936F0180936E01089590E084
:100D200080E00E948806089521E030E0A90102C019
:100D3000440F551F8A95E2F7CA010E94880608955C
:100D400021E030E002C0220F331F8A95E2F7809144
:100D50006E0190916F01822B932B0E94880608955B
:100D600021E030E002C0220F331F8A95E2F7209580
:100D7000309580916E0190916F01822393230E94A0
:100D80008806089521E030E002C0220F331F8A95C3
:100D9000E2F780916E0190916F01822793270E9464
:100DA0008806089520916E0130916F01822B932B5C
:100DB0000E948806089520916E0130916F01822370
:100DC00093230E948806089520916E0130916F014F
:100DD000822793270E94880608950895262F27705A
:100DE00091E001C0990F2A95EAF723E0769567957F
:100DF0002A95E1F7660F771F660F771FFA01E60F56
:100E0000F71F50E040E0682F70E08191DF011197FB
:100E10009B01042E02C0369527950A94E2F72170B3
:100E200021952827292328272C934F5F5F4F443093
:100E3000510559F70895A82FA77023E09695879537
:100E40002A95E1F7880F991F880F991FFB01E80F7A
:100E5000F91F50E040E080E0219130E00A2E02C00E
:100E6000369527950A94E2F721703327042E01C0A6
:100E7000220F0A94EAF7822B4F5F5F4F44305105EF
:100E800059F70895262F9A3070F4863060F4682F51
:100E900070E086E0989F600D711D11244EE451E0D2
:100EA000822F0E94EE060895292F9A3068F486302A
:100EB00058F490E06EE471E036E0239F800D911DC0
:100EC00011240E941B07089580E00895B0E0A0E07F
:100ED000ECE6F7E00C94CF227C0100916E011091BA
:100EE0006F018091700190917101082B192BCFE057
:100EF000D0E0CC24C394D12CBC2EC6010C2E02C051
:100F0000880F991F0A94E2F780239123892B49F4D3
:100F1000219790F7B12C8B2DCDB7DEB7E9E00C947B
:100F2000EB22B7018C2F0E94440E019789F3F3CF77
:100F3000CF93DF93EC010E946607BE010E94440E2E
:100F4000DF91CF9108951F93CF93DF93EB019091A1
:100F50004D01992339F0CB010E949807DF91CF9181
:100F60001F910895882369F0CB010E946607182F0E
:100F7000682FCE010E944207BE01812F0E94440EBD
:100F8000EDCFCB010E945407182FF6CF1F93CF93BC
:100F9000DF93C091720117E0809173018C1304C03C
:100FA000DF91CF911F910895D0E01C9FF0011D9F0C
:100FB000F00D1124EC58FE4F208131814281538184
:100FC0006481758186810E944E062196C770E4CFA8
:100FD0002091AC013091AD014091AE015091AF0133
:100FE0006091B0017091B1018091B2010E944E06F2
:100FF0000895CF93DF938091B201807F09F04DC0B7
:101000008091B101882309F448C0E09172015091A8
:101010007301C091AD01D091AC016091AE017091AE
:10102000AF0147E05E17C9F18E2F90E0E49FF00119
:101030001124EC58FE4F2481222391F1489FF001A6
:10104000499FF00D1124DF01AC58BE4F11962C9131
:1010500011972C1325C02C912D1322C015962C917D
:10106000159721111DC012962D913C91261B370B0F
:10107000283C3105A8F48091B2018F708061809383
:10108000B201E658FE4F80818F70806180838CEAC8
:1010900091E00E94EA050E94C607DF91CF91089572
:1010A000FC013196E770BECF482F209172019091DC
:1010B000730157E0291302C080E0089530E0529F89
:1010C000F001539FF00D1124EC58FE4F81816813FD
:1010D00006C08081481303C085818111EECF2F5F48
:1010E0003F4F2770E7CFA4E1B0E0E9E7F8E00C94C8
:1010F000CC228C0186E0F801DE011F9601900D9252
:101100008A95E1F7F8018481E5809CEAA92E91E0B7
:10111000B92E9091B00191111FC08823D1F0EE201B
:10112000A9F0C8010E943706F82E882379F087E0DD
:10113000F801D50101900D928A95E1F7C5010E9451
:1011400086030E94F9070E94E8075FC0C8010E9459
:10115000EA05FF24F39459C0C080D1808280938037
:10116000F090B1012091AE013091AF01A401421B7A
:10117000530BFF2009F4F9C0483C510508F0A7C003
:10118000882309F442C09091AD018091B201282FCB
:10119000207F09F05CC09D1116C09091AC01C9126E
:1011A00012C0E1104EC08F7080618093B2010E9426
:1011B000E8078CEA91E00E94EA058091B201F8010B
:1011C0008683F12C22C0E1103CC06D2D8C2D0E9435
:1011D00054086D2D8C2D0E945408E82E8111F1CFFA
:1011E000CF86D88A8F8598890E949807292F2295C3
:1011F0002F70243078F49F702230A8F09923B9F032
:10120000F8019681907F99F4FE2C8F2D6496ECE086
:101210000C94E8222A5F2F70223068F0C8010E94E7
:10122000EA05EF2CF1CF992311F0882369F3805E52
:10123000883050F3F3CF803F38F3815F833070F70D
:10124000E3CF8091B20181608093B201BACF9D114A
:1012500013C09091AC01C9120FC0E1100DC086837C
:10126000C8010E94EA0587E0F801ACEAB1E001900C
:101270000D928A95E1F767CFC8010E94370688234F
:1012800009F464CFEE2009F461CF8091B20180327D
:1012900088F02091AC013091AD01398728879B8679
:1012A0008A869091B0019C871D868E87CE01089614
:1012B0000E94EA0587E0F801ACEAB1E001900D92E6
:1012C0008A95E1F70E94F9070E94E80742CF9091C2
:1012D000B201292F207FA1F4682D9A8A898AA6015C
:1012E0007A899E2D0E9444068CEA91E00E94EA05CC
:1012F00087E0F50111928A95E9F70E94E80761CF2E
:10130000882309F482CF8091AD018D1110C08091A6
:10131000AC01C8120CC0E1100AC09683C8010E943B
:10132000EA0587E0F50111928A95E9F76ECFC801C9
:101330000E943706882309F409CFEE2009F406CF6E
:101340008091B201803208F4B5CF2091AC01309188
:10135000AD013A8329839C828B829091B0019D8359
:101360001E828F83CE010196A3CF483C5105B8F56C
:10137000882309F4EECEFE2CEE2009F4E7CE80910E
:10138000AD018D111EC08091AC01C8121AC08091B0
:10139000B20180FD0DC0982F907F51F08683903F61
:1013A00009F45ECF982F907F905F8F70892B57CF75
:1013B00087E0F801ACEAB1E001900D928A95E1F77F
:1013C00024CFC8010E943706811174CF8091B201E9
:1013D00081608093B201C8010E94EA0516CF682D92
:1013E0009A8A898AA6017A899E2D0E94440687E0FE
:1013F000F50111928A95E9F7A6CEAEE0B0E0E3E000
:10140000FAE00C94D522288739874A875B876C8756
:101410007D878E87CE0108960E9473088823B1F0DD
:101420006C85662341F0288539854A855B857D85F5
:101430008E850E944E0617E0809172019091730193
:1014400089133DC02E96E3E00C94F12287E0FE0163
:101450003896DE01119601900D928A95E1F78C8500
:10146000882349F32091730130E0C9010196877008
:101470009927409172014817190699F097E0929FB9
:10148000D001939FB00D1124AC58BE4FFE01319690
:1014900001900D929A95E1F7809373010E94C6071F
:1014A000CACF0E941706109273011092720187E052
:1014B000ECEAF1E0DF011D928A95E9F7BCCF819F4C
:1014C000C00111248C589E4F0E947308882309F490
:1014D000B9CFE09172011E9FF0011124EC58FE4F2C
:1014E00020813181428153816481758186810E948E
:1014F0004E068091720190E0019687709927809343
:1015000072019ACF8091BB01869586958695089544
:101510008091BB01877008959091BB01977081E025
:1015200009F480E008958091C70108959091C70162
:10153000892B8093C701089580959091C7019823C6
:101540009093C70108951092C70108959091C60124
:10155000892B8093C601089580959091C6019823A8
:101560009093C60108951092C601089508950E94AF
:10157000B60A08959091BC01292F282331F0809557
:1015800089238093BC010E94B70A089508950E94A0
:10159000C60A08959091BD01292F2823281729F004
:1015A000982B9093BD010E94C70A08959091BD01A8
:1015B000292F282331F0809589238093BD010E9433
:1015C000C70A08958091BD01882329F01092BD01BA
:1015D00080E00E94C70A08950F931F93CF93DF9373
:1015E0000091000110910101C091C7018091C601D5
:1015F000C82B8091BD01882331F0C82B0E94511760
:1016000081110E94E20AF801C083C0910001D091CB
:10161000010148E050E063EB71E0CE010E94FD2241
:10162000892B59F088E0FE01A3EBB1E001900D9207
:101630008A95E1F7CE010E944617DF91CF911F9165
:101640000F9108950E94EC0A089508950E94250BB9
:1016500008959091390292FF11C098E0899F9001FE
:101660001124622B6093BB010E94A0068091BB01F4
:101670008695869586950E94260B08950E94A00661
:1016800008951092BB0180E00E94260B089590916E
:10169000BB01809589238093BB01282F277069F4B3
:1016A000891759F09091390292FF07C08695869567
:1016B00086950E94B0060E94410B089590913902D0
:1016C00092FB222720F9281769F080FB92F990936A
:1016D000390280913802909139020E94AD0B82E06C
:1016E0000E94470B08958091390282FB882780F978
:1016F00091E089270E945E0B089581E00E945E0BB5
:10170000089580E00E945E0B08956FEF7FEF90E0F8
:1017100080E00E944F23089590E080E00E941B2308
:1017200021E0853E9E4F09F020E0822F089582E05F
:1017300090E00E941323089583E090E00E94132319
:1017400090E00895682F83E090E00E94312308958F
:1017500084E090E00E941B230895BC0184E090E0A7
:101760000E944F230895AB01BC018FE090E00E94DE
:1017700043230895AB01BC0183E190E00E94432321
:10178000089560E070E0CB010E94BA0B089560E01C
:1017900070E0CB010E94B30B0E94C10B0895A8E03A
:1017A000B0E0E5EDFBE00C94D62265EE7EEF90E034
:1017B00080E00E944F2360E082E090E00E943123AD
:1017C00081E090E090937101809370010E94A20BE0
:1017D00060E074E184E090E00E944F2360E086E0E6
:1017E00090E00E94312360E087E090E00E94312386
:1017F00040E050E0BA0188E090E00E94432360E0BE
:1018000083E290E00E94312360E08CE090E00E944F
:10181000312360E08DE090E00E94312319821A822A
:101820001B821C821D821E821F82188648E050E0A7
:1018300067E170E0CE0101960E94212340E050E074
:10184000BA018FE190E00E9443230E94C70B2896C3
:10185000E2E00C94F2220E94CF0B0895682F8EE0F4
:1018600090E00E9431230895A6E0B0E0EAE3FCE0B6
:101870000C94D4220E94C8188C018091C8019091C8
:10188000C9018017910781F019821A820E94C81835
:10189000682F49815A81792F80E090E00E94560399
:1018A0001093C9010093C8012696E4E00C94F0223D
:1018B0000E94600F6093D8017093D9018093DA0180
:1018C0009093DB016093D4017093D5018093D6018E
:1018D0009093D7010895089508950E946B0C089580
:1018E00008950E94700C0E946D0C089508950E9446
:1018F000760C089508950E947A0C0E94770C089542
:1019000081E008958AE79FE00E9444130E946C0CD6
:101910000E94710C08950E9443110895089508953E
:1019200008950E948E0C0E948F0C0E94900C0895C6
:101930000E948C0B811102C00E942B0C0E94970BFD
:101940008093DC010E94A80B9093390280933802A7
:101950000E949C0B0E94640680916E0190916F0121
:101960000E94850608950E94BF180E943A0F0E94A7
:1019700049110E949A100E94980C0E9430030E9404
:10198000671580E00E9491130E945B110E947B0CFE
:101990000895A6E0B0E0EFECFCE00C94CC220E94AD
:1019A000800CC82E811110C00E94340CC12C0E94E2
:1019B00043110E942E15C1100E94F4130E943D0392
:1019C0002696ECE00C94E8220E94BD108AECA82E2A
:1019D00081E0B82E750110E0F70101917F01812FA0
:1019E0000E94960F1F5F1A3009F441C00817A1F337
:1019F0008091DC0181FD0E949C0F0E948B0C982E2F
:101A000010E088248394812F0E94960F082FF501FF
:101A100081915F01081729F1F12CEE24E394D02E77
:101A2000D8268D2D8E21A9F0992099F0F9821A835C
:101A30000E94C8189C838B838D8291E0802F8E2119
:101A400009F490E049815A816B817C818D810E94EB
:101A50005603F394EE0CF6E0FF12E3CFF501319755
:101A600000831F5F1A3079F60E94580CA0CF08132C
:101A7000BFCF9ACF1F93CF93DF930E94490EEC0103
:101A8000C11582E5D80708F03FC0C11590E5D90718
:101A900008F0C2C0C83ED105C0F4C03ED10580F4F4
:101AA000C53AD10548F4C430D10550F4C130D10550
:101AB00039F0D0E0C0E004C0CD3CD105D0F3D06512
:101AC000CE01DF91CF911F910895C11580E4D80711
:101AD00008F053C0C11590E2D90708F0B7C0C1158E
:101AE00081E0D80730F38D2F0E94EB0E182FCE0126
:101AF00099270E94490EC12FD0E0DC2FCC27CC279C
:101B0000DF71C82BD92BDCCFC03892E5D907A8F4F8
:101B1000C03682E5D80708F063C0C03492E5D90723
:101B200008F049C0C03282E5D80788F1CF71D0E013
:101B3000DC2FCC27C16FD06AC3CFC03C92E5D90758
:101B400080F48C2F8F71C03AD24508F45EC00E9499
:101B5000EB0EC82FD0E0DC2FCC27CC27DF71D06272
:101B6000AFCFC03E82E5D80708F0A3CFDC2FCC274B
:101B7000CC27DF71C06FD06AA3CFCE0199270E9416
:101B8000490ECC27DF70C82BD92BD06A99CF2C2FC8
:101B90002695269590E2299F900111248C2F837021
:101BA000C1E0D0E002C0CC0FDD1F8A95E2F7C22B66
:101BB000D32BDD6885CF2C2F26952695277080E2C4
:101BC000289F900111248C2F8370C1E0D0E002C0C7
:101BD000CC0FDD1F8A95E2F7C22BD32BDC6870CFC8
:101BE0002C2F26952695277090E2299F900111248D
:101BF0008C2F8370C1E0D0E002C0CC0FDD1F8A952E
:101C0000E2F7C22BD32BDA685BCFC82FD0E0DC2FF2
:101C1000CC27C46FD06A54CF8C2F8F710E94EB0EEB
:101C200055E0D695C7955A95E1F7CF70D0E0DC2FF7
:101C3000CC27282F30E084FF05C044E0220F331F5B
:101C40004A95E1F7C22BD32BD0693ACF8D2F8F71F4
:101C50000E94EB0E182FCE0199270E94490EC12F2A
:101C6000D0E0DC2FCC27CC27DF71C82BD92B77CF46
:101C7000462F7A3030F4663020F4672F0E94E3015B
:101C8000089590E080E008950E94380E0E943A0D79
:101C9000089582389105B9F1B0F48133910509F4C2
:101CA0007DC048F48932910509F46DC08A329105EE
:101CB00009F47BC008958533910509F45FC0893329
:101CC000910509F10895833E9105D9F138F4803EDC
:101CD000910529F1823E910579F10895863E91059D
:101CE000D9F1873E910509F43EC0843E910541F546
:101CF0002091390221FF24C08091380284FD19C04F
:101D000087EE90E0089520913802237009F05AC0C0
:101D10002091390223FF14C089E290E008952091B8
:101D2000380220FD38C03091390230FF09C024FF4D
:101D300043C090E080E008952091380222FDF7CF63
:101D400008952091380222FD3AC03091390230FDC9
:101D500039C024FFF5CFEDCF2091380223FFF0CF1B
:101D600024FDE7CFCDCF2091380223FD2EC0309146
:101D7000390231FFEECF84EE90E0089520913802D1
:101D800025FFDECFC9CF2091380225FD21C020914B
:101D9000390223FFD5CF89E390E0D2CF20913802DA
:101DA00026FFCECF8AE290E008952091380226FFE8
:101DB000C7CF81E390E0089583EE90E0089582EE2E
:101DC00090E0089580EE90E0089586EE90E008950A
:101DD00085E390E008959091380292FF10C041E0B1
:101DE000282F2471243009F040E031E0282F287199
:101DF000283009F030E0431711F02CE0822793FFE0
:101E000010C041E0282F2471243109F040E031E076
:101E1000282F2871283109F030E0431711F02CE009
:101E200082273091390230FF10C051E0282F2171F4
:101E3000213009F050E041E0282F2871283009F0C6
:101E400040E0541711F029E0822731FF10C041E033
:101E5000282F2171213109F040E031E0282F28712D
:101E6000283109F030E0431711F029E0822794FD72
:101E7000877E089510923A0210923B0210923C0223
:101E800010923D020895CF92DF92EF92FF926B0184
:101E90007C010E94431181110EC00E94D418C61A01
:101EA000D70AE80AF90AC0923A02D0923B02E092BD
:101EB0003C02F0923D02FF90EF90DF90CF900895AA
:101EC0000F931F930E944311882329F00E94D41876
:101ED0001F910F9108950E94D41800913A02109119
:101EE0003B0220913C0230913D02600F711F821F26
:101EF000931FEECF80E00895CF939C01205E324582
:101F0000C1E02032310538F4FB01C581C11103C0A5
:101F10008F710E9472028C2FCF91089508950E94B4
:101F20008E0F089508950E94920F0895E82FF0E013
:101F3000E75BFD4F80810895089580EA8A95F1F767
:101F4000089500C008950E949D0F089508950E946D
:101F5000A60F0895A5E0B0E0E0EBFFE00C94D222DC
:101F60000E944311F82E60915302882309F440C067
:101F700085E0E82E8E010F5F1F4FF8018E2D119224
:101F80008A95E9F7862F90E0B801875B9D4F0E9404
:101F900069118823B9F080913E0290E045E050E05D
:101FA000B801875B9D4F0E94FD2221E02093DD0157
:101FB000892B91F4F12C0E94930F8F2D2596E6E04A
:101FC0000C94EE228091DD018823A1F3F801119297
:101FD000EA94E9F71092DD01A0913E02B0E0A75B20
:101FE000BD4F85E0F80101900D928A95E1F7E3CFAE
:101FF00070E0675B7D4F80913E0290E0875B9D4F74
:102000000E94F0110E94A70FD8CFF894E82FE29514
:10201000EF70F0E031A1282F2F7081E090E001C037
:10202000880F2A95EAF7982F9095932391A392A170
:10203000892B82A3789408950F931F93CF93DF93F6
:10204000C6E3D1E089918F3F11F00E94051081E035
:10205000CB33D807B9F7C0E3D1E006E311E08991AB
:102060008F3F11F00E9405100C171D07C1F7DF917B
:10207000CF911F910F910895B0E0A0E0E2E4F0E16C
:102080000C94D022EC01D62E062F10E0C8018A5CF9
:102090009E4F7C01FC0180818F3F09F444C0F8947D
:1020A000E82FE295EF70F0E091A18F7021E030E031
:1020B00001C0220F8A95EAF7892F822B81A382A182
:1020C0002095282322A378940E94A10FE0E3F1E059
:1020D00031E0C12C21912F3F59F1A22FA295AF7071
:1020E000B0E090968C9190E02F7002C09595879506
:1020F0002A95E2F780FD1CC0832FC82A330F81E0A8
:10210000E633F80739F7F70180818F3F11F00E941D
:10211000051061E0C11001C060E08D2D0E94A30F89
:10212000C00FD11FC882CDB7DEB7E8E00C94EC2217
:1021300080E0E3CF809102018091020195E081115E
:1021400090E09093530285E0891B80933E020E94A9
:102150001C108AE0E9E4F2E0DF01982F1D929A95C5
:10216000E9F7EFE3F2E0DF011D928A95E9F785E0F8
:102170000E94FB100E948F0F0895AAE0B0E0E3ECEC
:10218000F0E10C94D3228E010F5F1F4F8AE0F8011B
:1021900011928A95E9F7F12C6F2DC8010E943C102D
:1021A000F394F5E0FF12F8CF4AE050E0B8018FE376
:1021B00092E00E94FD2221E0009709F420E0892BA3
:1021C00041F08AE0F801AFE3B2E001900D928A9508
:1021D000E1F76091530270E0675B7D4F45E08FE36C
:1021E00092E00E94FC10182F0E94AA0F812B2A96C1
:1021F000E5E00C94EF220895B0E0A0E0E2E0F1E128
:102200000C94D0226C017B01042FC22F222379F081
:1022100081E08093E0010E94C8189093DF018093D1
:10222000DE0180E0CDB7DEB7E8E00C94EC22D0917F
:10223000E001DD23B1F38091DE019091DF010E9486
:102240004618059770F310E0A801B601C7010E9477
:10225000FD22892B31F0A801B601C7010E940A2393
:10226000CD2F1092E0018C2FDDCFCF930E949F22C3
:10227000C82F811102C00E949A228C2FCF910895FD
:102280008091E40108958091E30108950E94431133
:1022900008950E9435118093E3010E9446118093B6
:1022A000E4010E944011809302010E9443118111B8
:1022B0000E949F1108950E944311811102C00E9443
:1022C000A211089581E09091E5019A3008F080E034
:1022D00008950F931F93CF93DF93EC018B018091AF
:1022E000E5018A30B8F4B801CE010E94ED11C82F83
:1022F000811122C08091E5018F3FB9F40E94C81876
:102300009093E2018093E1018C2FDF91CF911F9197
:102310000F9108958091E1019091E2010E94461889
:10232000843F914000F7C0E0EFCF8F5F8093E501DD
:102330008A3020F7C1E0E8CF1092E501E5CF0E9496
:10234000D41A08950E94D71A0895B0E0A0E0EBEAED
:10235000F1E10C94D1227901C82F880FDD0B4115D2
:102360005105A9F0FE0193E0EE0FFF1F9A95E1F7EA
:10237000ED5FFE4F818192818A519E4F208130E036
:102380004217530708F49A01A9010E940A23CE01BB
:102390000E94C01BD82E8823D1F001151105B9F079
:1023A00083E0CC0FDD1F8A95E1F7FE01ED5FFE4F64
:1023B000438150E00417150708F4A801CD5FDE4FF4
:1023C0006C817D816A517E4FC7010E940A238D2D49
:1023D000CDB7DEB7E7E00C94ED220E94DF1208953E
:1023E0000E94F6120895A4E0B0E0E9EFF1E10C9448
:1023F000D4226091FD017091FE018091FF019091C6
:1024000000020E94501811E06436710581059105A3
:1024100018F10E94600F6E5F7F4F8F4F9F4F69834F
:102420007A838B839C8310E000E030E020E044E07E
:1024300050E0BE016F5F7F4F82E00E94A511182F10
:10244000882351F00E94D4186093FD017093FE011F
:102450008093FF0190930002812F2496E4E00C9476
:10246000F022B0E0A0E0E7E3F2E10C94CE227C01A0
:102470005B016A010E94621101E010E0882311F003
:102480000AE010E0C1E0D0E0B501C701F60109950E
:10249000811104C021960C171D072CF4CDB7DEB7AF
:1024A000EAE00C94EA22CC9F9001CD9F300D300DD4
:1024B000112490E080E045E34A95F1F70000019691
:1024C00082179307C1F7E0CFA6E0B0E0EAE6F2E1B9
:1024D0000C94CE227B01C0903B01D0903C0101E0E6
:1024E00010E09E012A5F3F4F50E040E070E060E066
:1024F00080E00E94A511182F882309F448C05601D6
:102500008FEFA81AB80A6091F9017091FA018091D1
:10251000FB019091FC010E94501864367105810501
:10252000910568F105E010E09E012F5F3F4F50E0FC
:1025300040E070E060E081E00E94A511D82E65E0E7
:1025400070E0C5010E94681511E09E81981310E0AB
:102550001D2141F10E94D4186093F9017093FA0192
:102560008093FB019093FC0185E0FE013196A4EF7E
:10257000B1E001900D928A95E1F711E013C065E09A
:1025800070E0C5010E9468159E818913CBCF85E05C
:10259000F6013196DE01119601900D928A95E1F7D0
:1025A0001111E2CF85E0E4EFF1E0D70101900D9247
:1025B0008A95E1F7812F2696EAE00C94EA220F93A0
:1025C0001F93CF93DF93EC018B0144E652E10E940D
:1025D0003112882331F043EF51E1B801CE010E945E
:1025E0003112DF91CF911F910F9108950F931F9397
:1025F000CF93DF93C0913B01D0913C01CE01019676
:1026000025E0FB01DC0101900D922A95E1F765E0E0
:1026100070E00E94681588836E817F818885998526
:102620000091F0011091F1012091F2013091F3013C
:10263000601771078207930751F06093F001709360
:10264000F1018093F2019093F3010E94430FDF9117
:10265000CF911F910F9108950E94C90C08950E9477
:1026600061180E94681D0E94820C0E94821D0E94B7
:10267000B30C0E948F1D0E94941D0E942C130E9477
:10268000AE1D0E94910CF7CF9093470180934601B5
:102690000895AB0124E630E0BC0188E70E94A6194A
:1026A00021E0892B09F020E0822F0895AB0124E678
:1026B00030E0BC0188E70E94EA1921E0892B09F08B
:1026C00020E0822F08950F931F939B0104E610E0F2
:1026D000AC0160E488E70E94301A21E0892B09F000
:1026E00020E0822F1F910F9108950E947219089582
:1026F00008950E9478130895E4E5F2E080E092E006
:10270000DF019C011D9221503040E1F7F0935B0402
:10271000E0935A048FEF9FEF909327028093260255
:102720000895CF930E9478130E9479138093220218
:1027300080FD11C080E8809321020E9475136BE038
:1027400070E087EA92E00E945613811106C0C0E053
:102750008C2FCF91089580E2EECF8091220265E028
:1027600070E081FD27C082EA92E00E945613882320
:1027700071F36DE070E080E992E00E945613C82F7B
:10278000882329F30E94D418605A75418F4F9F4FB8
:10279000609356047093570480935804909359049F
:1027A0000E947C1381E08093250280932402109282
:1027B0002302CECF8DE992E0D8CF2091210236E0DE
:1027C000839FC0011124629F800D911D11248115EA
:1027D00022E0920714F090E080E08C5A9D4F909395
:1027E0005B0480935A04089580912502811103C0EF
:1027F0008091240208950E94D418605A75418F4F29
:102800009F4F60935604709357048093580490939D
:102810005904809124028111EBCF62E070E08EE8D0
:1028200092E00E945613882319F381E080932402DA
:10283000DFCFA6E0B0E0EFE1F4E10C94C622182F60
:102840008091260290912702892B09F1809125021F
:102850008823E9F080912302811119C00E94F413AA
:102860001C821B8222242394312C03E065E4E62E93
:1028700061E0F62E77E0672E809126029091270284
:10288000009729F0BC81BB2349F0111107C026969F
:10289000E2E10C94E2222B812F5F2B833B81C32E3C
:1028A000D12C210102C0440C551C3A95E2F792014B
:1028B00028233923232B79F38091220280FD3EC007
:1028C0008B818295880F807680931D0196013695C5
:1028D00027953695279520932001815E80931E01D0
:1028E0002093210167E070E08BE191E00E944913A1
:1028F000882369F2C60135E0880F991F3A95E1F700
:102900002091220220FD28C060E270E08C5A9D4F89
:102910000E946313882309F4BACFC2018095909571
:1029200040902602509027024822592250922702B6
:10293000409226024C814F5F4C839ECF8B81880F43
:10294000880F880F80931D0110922001895F80936A
:102950001E0100932101C6CFA1E0B2E0E0E21D928A
:10296000EA95E9F721E431E03E832D832DE3C22E81
:1029700021E0D22EAD81BE816D91BE83AD83F60183
:1029800021916F01280F392F311DA9014C5A5D4F3C
:102990005A834983E62FF0E0EF5FFD4F30E020E0FF
:1029A000762C721A922C022E01C0990C0A94EAF726
:1029B00069817A81A12CDB01BD90BD01B920472D31
:1029C0004A194770842E042E000C550BBB2D01C0F4
:1029D000BB0F8A94EAF78B2E5195419551094770A8
:1029E000552701C0B6944A95EAF78B28B0808B280A
:1029F0008082A39448E0A412DECF2F5F3F4F319630
:102A00002830310569F6AD81BE81EA16FB0609F072
:102A1000B1CF60E270E081E092E07ACF8091240251
:102A200090912502911103C091E089270895882390
:102A300069F062E070E08CE892E00E945613811128
:102A400003C08091240208951092240280912402F0
:102A5000EBCF81E008950E94291508950F931F93ED
:102A600080912502882381F180915404909155042E
:102A70000E944618C29760F00E94C81890935504AF
:102A80008093540460E080E00E94DD130E942B15C7
:102A900080E00E941914809124028823A9F00E94EA
:102AA000D418009156041091570420915804309185
:102AB0005904601B710B820B930B6F3F7F4F8F4F3D
:102AC0009F4710F40E940E151F910F9108950895CD
:102AD000FC01680F791F8FEF91E3E617F70709F400
:102AE00008952191822728E030E087FF06C0880FF3
:102AF000892721503109C9F7F0CF880FFACFCF933A
:102B0000DF93EB0186319C4711F50E94930A9D816A
:102B1000992399F08A7A91E009F490E09093280241
:102B2000811109C089E20E94A1170E94220B80E056
:102B3000DF91CF91089585E3F6CF8091280281112E
:102B400004C089E20E94A917F0CF85E3FBCF81E0A2
:102B5000EFCFCF93DF93EC01FB018581882309F44C
:102B6000D2C09E0130572332310508F0B2C00E9416
:102B7000A80B9093390280933802FE01E150F04790
:102B8000E232F10520F4ED58FC4D0C94C022809106
:102B9000380281608093380293C080913902886046
:102BA000809339028DC0809138028260F3CF80918A
:102BB00038028460EFCF809138028860EBCF80913B
:102BC00039028160EDCF809139028260E9CF809136
:102BD00038028061DFCF809138028062DBCF809144
:102BE00038028064D7CF0E9417068091380280682F
:102BF000D1CF809138028C60CDCF80913902836033
:102C0000CFCF809138028E7FC5CF80913902877FE8
:102C1000C7CF809138028D7FBDCF809138028B7FE6
:102C2000B9CF80913802877FB5CF809139028E7FEE
:102C3000B7CF809139028D7FB3CF809138028F7EDC
:102C4000A9CF809138028F7DA5CF809138028F7BEC
:102C5000A1CF0E941706809138028F779BCF809179
:102C60003802837F97CF809139028C7F99CF8091F2
:102C7000380282FB992790F921E0922790FB82F994
:102C800090FB83F987CF80913902982F90959170AE
:102C90008E7F892B90FB81F983CF90913802892F09
:102CA0008F7B96FF806476CF0E9417069091380242
:102CB000892F97FB87F980586DCF81E00E942E0CF9
:102CC00080913802909139020E94AD0B0E94170644
:102CD00080E0DF91CF91089580E0F0CF90913802AD
:102CE000892F8F7E94FF806155CF90913802892F74
:102CF0008E7F90FF81604ECF90913902892F877F20
:102D000093FF88604DCF81E0E4CF0F931F93CF9363
:102D1000DF93C42FD22FFC0185818823C9F0409313
:102D20002B020E94C81890932A028093290280E205
:102D30008C0F883040F4C77081E001C0880FCA95BD
:102D4000EAF70E94EF03DF91CF911F910F91089551
:102D500010912B02141332C08091290290912A0203
:102D60000E944618883C910548F5C0E2CD0F1D171A
:102D7000B9F080E2810F883040F4177081E001C023
:102D8000880F1A95EAF70E94F603C83048F481E0EC
:102D90009D2F977001C0880F9A95EAF70E94EF0364
:102DA000802F0E94E603C83070F6D77081E001C022
:102DB000880FDA95EAF70E94F603C5CF80E28C0F00
:102DC000883008F6C77081E001C0880FCA95EAF71D
:102DD000F2CF0F93DB0188519C4787309105A0F516
:102DE000FC01EB56FC4D0C94C02206E221EE41EEB4
:102DF0006AE17CE7CD010E94851680E00F9108957D
:102E000007E225EE45EE6BE17CE7F4CF06E221EE2A
:102E100040EE68E17CE7EECF07E225EE44EE69E1A3
:102E20007CE7E8CF06E221EE42EE6CE17CE7E2CF00
:102E300007E225EE46EE6DE17CE7DCCF08E221E01B
:102E400045EE6EE17CE7D6CF15968C91882319F07C
:102E500010922B02D3CF81E0D1CF90932E0280939A
:102E60002D0208950E944311811103C080912C020C
:102E70000895E0912D02F0912E02309729F00190F3
:102E8000F081E02D0995089580E00895E0912D02EC
:102E9000F0912E02309721F00280F381E02D099508
:102EA000089540910001509101019A012E5F3F4F1A
:102EB000485F5F4F80E02417350709F40895F90152
:102EC00091919F019923B9F38F5FF5CF882371F01A
:102ED0002091000130910101F9013296285F3F4FA6
:102EE0009191981729F0E217F307D1F780E0089540
:102EF00081E008959C01FC0132969FEF80E04191B2
:102F0000461751F09F3F19F4411101C0982F8F5F70
:102F10008630A9F79F3F09F40895290F311D97FDC9
:102F20003A95F90162830895FC0132960896219141
:102F3000261303C0DF0111971C92E817F907B9F7B0
:102F40000895682F80910001909101010E947A17E5
:102F50000895682F80910001909101010E949417BB
:102F60000895E0910001F0910101329686E0DF01C1
:102F70001D928A95E9F7089508950E94BC17089557
:102F800081110EC081E08093250160912201709132
:102F9000230180912401909125010E94BD1708957D
:102FA00082E0F1CF83E0809325016091220170914E
:102FB000230180912401909125010E94BD1708955D
:102FC0000E94C017089581E080932501609122013D
:102FD0007091230180912401909125010E94BD17D9
:102FE00008950E94E317089591E0811101C090E0D7
:102FF000909324016091220170912301809124011A
:10300000909125010E94BD17089580912401089593
:10301000809323016091220170912301809124010A
:10302000909125010E94BD17089580912301089574
:1030300080932201609122017091230180912401EB
:10304000909125010E94BD17089580912201089555
:10305000089508950E9429180895089508950E94DA
:1030600028180895CF930E942D180E94BD100E9429
:103070002E18C0E08C2F0E94960F811105C0CF5FE3
:10308000CA30C1F7CF91089581E0FCCFCF93DF9391
:10309000EC010E94C8188C1B9D0BDF91CF91089505
:1030A000CF92DF92EF92FF926B017C010E94D418C5
:1030B0006C197D098E099F09FF90EF90DF90CF90EA
:1030C000089585B7806885BF85B7806885BF0895F6
:1030D0001F921FB61F9211248F939F93AF93BF939C
:1030E00080912F02811113C080915C0490915D0446
:1030F000A0915E04B0915F044196A11DB11D809323
:103100005C0490935D04A0935E04B0935F04BF9150
:10311000AF919F918F911F901FBE1F901895809126
:103120006404843031F10E940E0310922F0288E172
:1031300090E020E40FB6F894A895809360000FBE4D
:103140002093600083B7817F846083BF83B78160F1
:1031500083BF7894889583B78E7F83BF0FB6F8942A
:10316000A895809160008861809360001092600053
:103170000FBE08950E9417060E941703089582E06B
:1031800084BD93E095BD9AEF97BD80936E0008953E
:103190002FB7F89480915C0490915D04A0915E0437
:1031A000B0915F042FBF08952FB7F89460915C042D
:1031B00070915D0480915E0490915F042FBF08952B
:1031C00078941F921FB61F9211248F939F93AF93F1
:1031D000BF9380915C0490915D04A0915E04B091D6
:1031E0005F040196A11DB11D80935C0490935D0462
:1031F000A0935E04B0935F04BF91AF919F918F91B4
:103200001F901FBE1F90189587E797E790930108BE
:103210008093000888E19AE00FB6F894A89580930F
:1032200060000FBE90936000FFCF88E19AE00FB678
:10323000F894A895809360000FBE90936000FFCF34
:10324000EF92FF920F931F93CF93DF93182FEB0111
:103250001092BC0084EA8093BC000E94C8187C01D4
:103260008091BC0087FF27C08091B900887F88309B
:1032700029F08091B900887F803189F51093BB00D7
:1032800084E88093BC000E94C8188C018091BC0027
:1032900087FF1EC02091B900287F90E080E0283190
:1032A00091F081E090E0203411F490E080E091957D
:1032B0008195910908C0C7010E944618C817D9070F
:1032C00078F68EEF9FEFCDB7DEB7E6E00C94EE22F6
:1032D000C8010E944618C817D907C0F6F2CF8FEF71
:1032E0009FEFF1CF1092B9008CE08093B800089561
:1032F0000F931F93CF93DF93EB018093BB0084E880
:103300008093BC000E94C8188C018091BC0087FF8C
:1033100011C02091B900287F81E090E0283211F49B
:1033200090E080E0919581959109DF91CF911F9177
:103330000F910895CF3FDC0741F3C8010E94461862
:10334000C817D90710F78EEF9FEFEFCFB0E0A0E0DE
:10335000ECEAF9E10C94CB22782E5B016A01890139
:103360000E94C8184C01C1E0D0E00431110558F0AA
:10337000C5E0D0E00F3F100731F0C80164E170E014
:103380000E94AC22EB01BE01872D0E9420197C0116
:1033900097FF09C00F3F1007B1F3C4010E94461800
:1033A0000817190780F7E501CA0CDB1CCC15DD05F1
:1033B00011F0F7FE09C084E98093BC00C701CDB7C6
:1033C000DEB7EDE00C94E722B80189910E947819EC
:1033D0007C01ECCFB0E0A0E0E0EFF9E10C94CB226F
:1033E000782E5B016A0189010E94C8184C01C1E076
:1033F000D0E00431110558F0C5E0D0E00F3F1007D0
:1034000031F0C80164E170E00E94AC22EB01BE0122
:10341000872D0E9420197C0197FF09C00F3F1007DC
:10342000B1F3C4010E9446180817190780F7E50197
:10343000CA0CDB1CCC15DD0511F0F7FE09C084E9D0
:103440008093BC00C701CDB7DEB7EDE00C94E72256
:10345000FE018491B8010E9478197C012196EACF7F
:10346000B0E0A0E0E6E3FAE10C94CA22682E762EE2
:103470005A0169010E94C8184C01C1E0D0E0043132
:10348000110558F0C5E0D0E00F3F100731F0C8013A
:1034900064E170E00E94AC22EB01BE01862D0E9427
:1034A00020197C0197FF1DC00F3F1007B1F3C40125
:1034B0000E9446180817190780F784E98093BC001A
:1034C000C701CDB7DEB7EEE00C94E622B8018991D2
:1034D0000E9478197C01CC16DD0679F3F7FEF6CF51
:1034E000ECCFB801872D0E9478197C01E501CA0C48
:1034F000DB1CF1CF8EE14A9B02C08150E1F74A9B71
:10350000FECF08955A9880E28A95F1F75A9A089565
:10351000FC013BE03A95F1F798E020E080E031E0F3
:1035200040E14A95F1F7880F4A9B02C0816023274A
:1035300042E04A95F1F7000040E14A95F1F79150D9
:1035400079F790E19A95F1F799B132E03A95F1F770
:10355000000040E14A95F1F792FB992790F99227F4
:103560002081920F90830895A1E0B0E0EAEBFAE1A8
:103570000C94D22219828C017C01E60EF11C0E15EE
:103580001F0541F481E09981911180E02196E6E0E8
:103590000C94EE220E947A1ACE0101960E94881A9B
:1035A000F80181938F01EBCF529A5A9A089552985D
:1035B0005A9AEA9AE9E6F0E080818F7C8083089548
:1035C0006150770B91E001C0990F6A95EAF720E00E
:1035D00031E0911108C0222391F05A9A80E28A9535
:1035E000F1F75A980895492F482339F05A9A23271A
:1035F00040E24A95F1F79695ECCF5A98F9CF5A9850
:10360000EDCFFF920F931F93CF93DF93EC018C01CB
:10361000060F111DC017D10729F4CDB7DEB7E5E0BD
:103620000C94EF22F9900E94821A68E08F2D0E947C
:10363000E01AF0CF1F920F920FB60F9211240F9342
:103640001F932F933F934F935F936F937F938F932A
:103650009F93AF93BF93EF93FF93CF93DF930F921B
:10366000CDB7DEB719820E947A1ACE0101960E9468
:10367000881A082F069506950695282F22952570FD
:10368000902F9570290F922F937026952695920F63
:10369000982797708981982B09F05CC0043008F056
:1036A00059C080E18A95F1F75A9A529A82E08A9538
:1036B000F1F700C05A9888E0089F80011124D801D2
:1036C000AD5FBE4F1696ED91FC9117973097A9F01C
:1036D00060913B0170913C0114962D913C9115979E
:1036E000260F371F11968D919C911297680F791FA5
:1036F00013964C9113978C910995F801ED5FFE4F4D
:103700006381662351F020913B0130913C0184811B
:103710009581820F931F0E94011B0E94821A80E1F3
:103720008A95F1F75A9852985A9A80E18A95F1F75A
:10373000F801ED5FFE4F6081662351F020913B015F
:1037400030913C0181819281820F931F0E94B41AB3
:103750000E947A1A0F90DF91CF91FF91EF91BF9164
:10376000AF919F918F917F916F915F914F913F9119
:103770002F911F910F910F900FBE0F901F901895D2
:103780000F931F93CF93DF93EC0104970CF04CC081
:10379000F894529A5A9885E08A95F1F700009C2F88
:1037A000969595708C2F8570980F892F83709695BC
:1037B000969523E0CC0FDD1F2A95E1F7980F8E0137
:1037C000092B0E94821A00C068E0802F0E94E01A34
:1037D00080E18A95F1F752985A9A4A9B1EC087E079
:1037E00090E04A991CC0FE01ED5FFE4F63816623A5
:1037F000F9F020913B0130913C0184819581820F49
:10380000931F0E94B41A811113C0529A5A9A789445
:10381000DF91CF911F910F91089500C0DECF0197E6
:1038200029F4529A5A9A789480E0F2CF00C0D9CF06
:103830000E947A1A80E28A95F1F75A98529A80E1AA
:103840008A95F1F7CD5FDE4F6881662351F02091B4
:103850003B0130913C0189819A81820F931F0E9424
:10386000011B0E94821A789481E0D2CF08950895B6
:1038700008959B01BA01909164049430E9F48F702B
:103880008093E9009FEF8091E800915085FD06C08C
:1038900085ED8A95F1F700009111F5CF8091E80050
:1038A00085FF0AC050E040E0C9010E94131E8091CC
:1038B000E8008E778093E8000895CF93DF93EC01C2
:1038C0000E94051848E050E0BE0181E00E94391CCA
:1038D00088E0FE01A0E3B2E001900D928A95E1F745
:1038E000DF91CF91089580916304811109C00E94F6
:1038F000A31F0E9400208091E20084608093E20078
:1039000008951092630408950E94E31781E00E94D5
:10391000F41708956091600481E0611101C080E0B6
:103920000E94D21708959091640481E0943009F0C8
:1039300080E0609160040E94E017089542E061EC2D
:1039400081E00E941F1F9091640481E0943009F08F
:1039500080E0609160040E94C01708958091660421
:10396000833009F461C030F48130D1F1823009F440
:103970009EC008958A3009F48AC08B3009F46FC064
:10398000893009F050C080916504813209F04BC044
:103990008091690490916A04892B09F044C0809158
:1039A000E800877F8093E8008091E80082FF37C0BD
:1039B0009091F3008091F200029731F48091F10030
:1039C000813011F0863021F48091F1000E940818B6
:1039D0008091E8008B778093E8000E94531F23C0FA
:1039E00080916504813AF9F48091E800877F8093A3
:1039F000E8008091690490916A04892B61F468E081
:103A000080E392E070E00E94621E8091E8008B7774
:103A10008093E800089560E090E080E0F3CF80912B
:103A200064048111C1CF089580916504813AD9F76A
:103A30008091690490916A04892BA9F78091E8002C
:103A4000877F8093E8008091E80080FFFCCF0E9490
:103A500005188093F1008091E8008E77BCCF8091AB
:103A60006504813201F78091690490916A04892B81
:103A7000D1F68091E800877F8093E8000E94531F71
:103A8000809167040E94F4170E94170608958091A0
:103A90006504813241F68091E800877F8093E800D9
:103AA0000E94531F809168040E9418180895809105
:103AB0006504813A09F0B7CF8091E800877F809351
:103AC000E8008091E80080FFFCCF0E942518C1CF5C
:103AD00084B7877F84BF0FB6F894A8958091600063
:103AE000886180936000109260000FBE80E890E0D3
:103AF0000FB6F89480936100909361000FBE0E940E
:103B0000F11708950E94A31F0E940020E2EEF0E04A
:103B100080818460808378940E947F22089586E269
:103B200091E00E942D17089580916404853031F44E
:103B300080916404853019F00E94BA1808950E949B
:103B40008F180E943218882399F380916204882389
:103B500079F30E94FD1D0E941706EACF08959A018D
:103B600040916B0450916C040E94B71D0895492F39
:103B7000552743305105C9F058F44130510599F1AA
:103B800042305105A9F190E080E050E040E01DC0D6
:103B90004132510509F142325105A9F784E490E020
:103BA0004CE053E0672B79F710C0992781309105DD
:103BB00081F0009729F0029731F7E2EBF2E002C0C2
:103BC000E4EDF2E0849190E0AF01F901518340838C
:103BD0000895E2ECF2E0F6CF89E090E04AEE52E0A0
:103BE000672B89F6F2CF82E190E04AEF52E0EDCF09
:103BF00082E290E048ED52E0E8CF80E189BD82E1C9
:103C000089BD09B400FEFDCF8091D8008F7D8093DF
:103C1000D8008091E00082608093E0008091E00015
:103C200081FDFCCF0895AF92BF92CF92DF92FF92B9
:103C30000F931F93CF93DF936C01EB018A010E94D6
:103C4000721FF82E811123C00115110539F0F801FA
:103C500080819181C81BD90BC80ED91EB12CA12C13
:103C60002097A9F08091E80085FD22C08091E800AE
:103C70008E778093E80001151105A1F0F80180818D
:103C80009181A80EB91EB182A08285E0F82E8F2DF9
:103C9000DF91CF911F910F91FF90DF90CF90BF9058
:103CA000AF9008950E94721F8823D1F2F82EEFCFB3
:103CB000F60181916F018093F1002197FFEFAF1A18
:103CC000BF0ACECFFC0180916B0490916C048617E3
:103CD0009707A0F06115710529F49091E8009E778F
:103CE0009093E80090E06115710551F4911108C0BE
:103CF0008091E80082FF34C080E00895BC01F2CFDB
:103D0000809164048823C1F18530C1F18091E8007D
:103D100083FD30C08091E80082FDEACF8091E80009
:103D200080FFE1CF8091F3002091F200382F6115E0
:103D3000710519F02830310558F091E0283031052F
:103D400009F090E02091E8002E772093E800CBCF97
:103D500081918093F100615071092F5F3F4FE7CF50
:103D600080916404882341F0853041F08091E8001F
:103D700083FFBECF81E0089582E0089583E0089537
:103D8000FC0180916B0490916C0486179707A0F05A
:103D90006115710529F48091E8008E778093E80021
:103DA00090E06115710551F4911108C08091E8000F
:103DB00082FF35C080E00895BC01F2CF8091640499
:103DC0008823C9F18530C9F18091E80083FD31C0B5
:103DD0008091E80082FDEACF8091E80080FFE1CF8A
:103DE0008091F3002091F200382F6115710519F0D0
:103DF0002830310558F091E02830310509F090E085
:103E00008091E8008E778093E800CBCF84918093F7
:103E1000F1003196615071092F5F3F4FE6CF8091DD
:103E20006404882341F0853041F08091E80083FFED
:103E3000BDCF81E0089582E0089583E00895982F32
:103E4000973028F08F708093E90081E00895909377
:103E5000E900242F762F50E0981731F07091EC0094
:103E60002091ED005091F00021FD02C09F5FE8CF4E
:103E70003091EB003E7F3093EB003091ED003D7FC1
:103E80003093ED003091EB0031603093EB00709394
:103E9000EC002093ED005093F0002091EE0027FD00
:103EA000E5CF80E008958091650487FF13C080917D
:103EB000E80082FF06C08091E8008B778093E800DD
:103EC00004C0809164048111F2CF0895809164044C
:103ED0008823D9F38091E80080FFF8CF8091E80033
:103EE0008E77ECCF2091E4003091E50095E6A901B2
:103EF0002091EC00822F817020FF06C08091E800A5
:103F000080FF06C080E008952091E80022FD1AC0DD
:103F100080916404882389F0853089F08091EB00DA
:103F200085FD0FC02091E4003091E5004217530752
:103F3000F9F29150E1F684E0089582E0089583E07B
:103F4000089581E008950E9412200E941A20E0EE58
:103F5000F0E0808181608083E8EDF0E080818F7700
:103F6000808319BCA7EDB0E08C918E7F8C9380810B
:103F70008F7E80831092630408950F931F93CF93D5
:103F8000DF930E9412200E941A20C8EDD0E08881A1
:103F90008F77888388818068888388818F7D8883F4
:103FA00019BC109264041092600410926204109282
:103FB000610400EE10E0F80180818B7F80838881AE
:103FC0008160888342E060E080E00E941F1FE1EE94
:103FD000F0E080818E7F8083E2EEF0E0808181607E
:103FE0008083808188608083F80180818E7F8083D8
:103FF000888180618883DF91CF911F910F9108950F
:10400000E8EDF0E080818F7E8083E7EDF0E0808155
:104010008160808384E082BF81E0809363040E949A
:10402000BD1F0895E8EDF0E080818E7F80831092BF
:10403000E20008951092DA001092E10008951F92B4
:104040000F920FB60F9211242F933F934F935F93CC
:104050006F937F938F939F93AF93BF93EF93FF9350
:104060008091E10082FF0BC08091E20082FF07C0D7
:104070008091E1008B7F8093E1000E947E228091FD
:10408000DA0080FF19C08091D80080FF15C08091B0
:10409000DA008E7F8093DA008091D90080FF96C08D
:1040A00080E189BD82E189BD09B400FEFDCF81E0D8
:1040B000809364040E94731C8091E10080FF19C00A
:1040C0008091E20080FF15C08091E2008E7F809396
:1040D000E2008091E20080618093E2008091D8004C
:1040E00080628093D80019BC85E0809364040E94AC
:1040F0008A1C8091E10084FF2BC08091E20084FF44
:1041000027C080E189BD82E189BD89B5982F917072
:1041100080FFFBCF8091D8008F7D8093D800809165
:10412000E1008F7E8093E1008091E2008F7E80939A
:10413000E2008091E20081608093E200809160045F
:10414000882309F449C084E0809364040E94931C8E
:104150008091E10083FF29C08091E20083FF25C0A8
:104160008091E100877F8093E10082E08093640486
:10417000109260048091E1008E7F8093E100809135
:10418000E2008E7F8093E2008091E2008061809364
:10419000E20042E060E080E00E941F1F8091F0009A
:1041A00088608093F0000E94841CFF91EF91BF9182
:1041B000AF919F918F917F916F915F914F913F91BF
:1041C0002F910F900FBE0F901F90189519BC109251
:1041D00064040E94811C70CF8091E30087FD93E00E
:1041E00090936404B3CF1F920F920FB60F921124D5
:1041F0002F933F934F935F936F937F938F939F93EF
:10420000AF93BF93CF93DF93EF93FF93D091E900E8
:10421000DF708091EC00C82FC17080FDC0E8109263
:10422000E9008091F000877F8093F00078940E94ED
:1042300037211092E9008091F00088608093F000AF
:10424000CD2BCF70C093E900FF91EF91DF91CF911B
:10425000BF91AF919F918F917F916F915F914F919E
:104260003F912F910F900FBE0F901F901895AAE2CB
:10427000B0E0EDE3F1E20C94D52285E694E02091E4
:10428000F100FC012193CF01F4E08D369F07B9F7CF
:104290000E94AE1C8091E80083FF1EC180916504DE
:1042A000909166049A3008F017C1E92FF0E0E456C7
:1042B000FC4D0C94C022803899F0823809F00CC172
:1042C000809169048F70873008F006C18093E900FF
:1042D0008091EB0085FB882780F91092E90006C0E9
:1042E0008091610490916204911182609091E80044
:1042F000977F9093E8008093F1001092F1008091F5
:10430000E8008E77E5C0882309F4D3C0823009F035
:10431000E3C0809167048111D6C0809169048F70D9
:104320002FEF280F263008F0D7C08093E9002091A6
:10433000EB0020FFC8C0933031F48091EB00806225
:104340008093EB00C0C09091EB0090619093EB00E4
:1043500021E030E001C0220F8A95EAF72093EA00BD
:104360001092EA008091EB008860EACF8111B4C01E
:10437000109167041F778091E3008078812B8093F0
:10438000E3008091E800877F8093E8000E94531F3C
:104390008091E80080FFFCCF8091E30080688093EB
:1043A000E30082E0111183E08093640495C080589B
:1043B000823008F091C080916704909168048C3D30
:1043C00023E09207A1F583E08A838AE289834FB7CD
:1043D000F894DE01139620E03EE051E2E32FF0E096
:1043E00050935700E49120FF03C0E295EF703F5FC8
:1043F000EF708E2F90E0EA30C0F0C7968D939D93BA
:104400002F5F243159F74FBF8091E800877F809359
:10441000E8006AE270E0CE0101960E94621E80917F
:10442000E8008B778093E80057C0C096E7CF609193
:10443000690470916A04AE014F5F5F4F0E94AF1D27
:10444000BC01892B09F448C09091E800977F9093B4
:10445000E80089819A810E94C01EE1CF8038E1F591
:104460008091E800877F8093E800809160048093CA
:10447000F10045CF811130C090916704923060F512
:104480008091E800877F8093E800909360040E9409
:10449000531F80916004882311F084E005C080914F
:1044A000E30087FDFACF81E0809364040E949E1CA4
:1044B00013C080916704813079F481E0933009F072
:1044C00080E0809362041092E9008091E800877F89
:1044D0008093E8000E94531F8091E80083FF0AC088
:1044E0008091E800877F8093E8008091EB008062F4
:1044F0008093EB00AA96E3E00C94F1220895CF9309
:10450000809164048823A1F0C091E900CF7090915C
:10451000EC00892F817090FD80E8C82B1092E90093
:104520008091E80083FD0E943721CF70C093E9009D
:10453000CF9108950E94A31F109264040895E8ED9E
:10454000F0E08081806180838AE18A95F1F700C084
:104550008091D90081700895AA1BBB1B51E107C04F
:10456000AA1FBB1FA617B70710F0A61BB70B881F03
:10457000991F5A95A9F780959095BC01CD01089592
:10458000EE0FFF1F0590F491E02D09942F923F92BA
:104590004F925F926F927F928F929F92AF92BF9253
:1045A000CF92DF92EF92FF920F931F93CF93DF93FF
:1045B000CDB7DEB7CA1BDB0B0FB6F894DEBF0FBE5C
:1045C000CDBF09942A88398848885F846E847D84A9
:1045D0008C849B84AA84B984C884DF80EE80FD80AB
:1045E0000C811B81AA81B981CE0FD11D0FB6F89421
:1045F000DEBF0FBECDBFED010895FB01DC0104C09D
:104600008D910190801921F441505040C8F7881BCA
:10461000990B0895FB01DC0102C001900D924150FD
:104620005040D8F70895F999FECF92BD81BDF89A10
:10463000992780B50895A8E1B0E042E050E00C94DD
:104640005723DC01A40FB51F4150504048F0CB0167
:10465000840F951F2E910E94322341505040D0F775
:104660000895262FF999FECF92BD81BDF89A019742
:1046700000B4021639F01FBA20BD0FB6F894FA9AAA
:10468000F99A0FBE08950396272F0E9432230E94A5
:104690003123252F0E943223242F0C94322301969C
:1046A000272F0E9432230C943123DC01CB01FC0123
:1046B000F999FECF06C0F2BDE1BDF89A319600B47B
:1046C0000D9241505040B8F70895F894FFCF3E0442
:1046D0003E047C047C046D046D046D046D04E004F0
:1046E000510560056005011675160916D315D71515
:1046F0000D16DB1511161D16E7156E16EB15211696
:10470000EF1525164D16F31529165416F9152F1603
:104710003716DF151516E3151916FD153316431652
:104720005D166C16CD1505167C1606170C17F516BA
:104730000017121718171E175B2183216C22832183
:0C4740006C22B621D7216C222E223A22D6
:10474C00BE01010000000100000000000000050196
:10475C0000000004060000000000000021007F2281
:10476C0000030000010015185D1C371C381C361C9A
:10477C00F6F7313332366697C63435E60100081049
:06478C00181810080000DF
:00000001FF
